:020000040800F2
:1000000000000220651F0008D11E0008D31E000852
:10001000D51E0008D71E0008D91E000800000000E9
:10002000000000000000000000000000DB1E0008CF
:10003000DD1E000800000000DF1E0008E11E0008B1
:10004000B51F0008B51F0008B51F0008B51F000840
:10005000B51F0008B51F0008ED1E0008B51F0008F9
:10006000B51F0008B51F0008B51F0008B51F000820
:10007000B51F0008B51F0008B51F0008B51F000810
:10008000B51F0008B51F0008F91E0008B51F0008BD
:10009000B51F0008B51F0008B51F0008B51F0008F0
:1000A000B51F0008B51F0008B51F0008B51F0008E0
:1000B000B51F0008B51F0008B51F0008B51F0008D0
:1000C000B51F0008B51F0008B51F0008B51F0008C0
:1000D000B51F0008B51F0008B51F0008091F00085C
:1000E000B51F0008B51F0008B51F0008B51F0008A0
:1000F000B51F0008B51F0008B51F0008B51F000890
:10010000B51F0008B51F0008B51F0008B51F00087F
:10011000B51F0008B51F0008B51F0008B51F00086F
:10012000B51F0008B51F0008B51F0008B51F00085F
:10013000B51F0008B51F0008B51F0008B51F00084F
:10014000B51F0008B51F0008B51F0008B51F00083F
:10015000B51F0008B51F0008B51F0008B51F00082F
:10016000B51F0008B51F0008B51F0008B51F00081F
:10017000B51F0008B51F0008B51F000800000000EB
:08018000B51F0008B51F0008BF
:1001880010B5054C237833B9044B13B10448AFF3C9
:1001980000800123237010BD18000020000000001B
:1001A8000020000808B5034B1BB103490348AFF30F
:1001B800008008BD000000001C000020002000088E
:1001C80053B94AB9002908BF00281CBF4FF0FF31B6
:1001D8004FF0FF3000F072B9ADF1080C6DE904CEB4
:1001E80000F006F8DDF804E0DDE9022304B070470A
:1001F8002DE9F047089E04468846002B4BD18A42D9
:10020800154667D9B2FA82F24AB1C2F1200701FA5B
:1002180002F320FA07F7954047EA030894404FEAAB
:10022800154E230CB8FBFEF71FFA85FC0EFB17884A
:1002380043EA084307FB0CF1994209D9EB1807F187
:10024800FF3080F01B81994240F21881023F2B4415
:100258005B1AA4B2B3FBFEF00EFB103344EA03446E
:1002680000FB0CFCA44509D92C1900F1FF3380F0E0
:100278000781A44540F2048102382C4440EA074033
:10028800A4EB0C0400271EB1D4400023C6E90043A8
:100298003946BDE8F0878B4209D9002E00F0EB8083
:1002A8000027C6E9000138463946BDE8F087B3FAA9
:1002B80083F7002F47D18B4202D3824200F2FA80A3
:1002C800841A61EB030301209846002EE0D0C6E9AA
:1002D8000048DDE702B9FFDEB2FA82F2002A40F0F8
:1002E8008F80491B4FEA154E1FFA85F80127B1FB8D
:1002F800FEFC230C0EFB1C1143EA014308FB0CF126
:10030800994207D9EB180CF1FF3002D2994200F25A
:10031800CD808446591AA3B2B1FBFEF00EFB10142F
:1003280043EA044408FB00F8A04507D92C1900F15A
:10033800FF3302D2A04500F2B6801846A4EB0804A9
:1003480040EA0C409FE7C7F1200CBB4022FA0CFEA4
:100358004EEA030E01FA07F420FA0CF521FA0CF321
:100368004FEA1E482543B3FBF8F92C0C08FB193358
:100378001FFA8EFA44EA034309FB0AF49C4202FA84
:1003880007F200FA07F10BD91EEB030309F1FF305E
:1003980080F087809C4240F28480A9F1020973446E
:1003A8001B1BADB2B3FBF8F008FB103345EA03445E
:1003B80000FB0AFAA24508D91EEB040400F1FF333A
:1003C8006BD2A24569D90238744440EA0940A0FBBF
:1003D8000289A4EB0A044C45C2464B4654D351D07B
:1003E800002E69D0B1EB0A0564EB030404FA0CFC97
:1003F800FD40FC404CEA0505C6E90054002747E7E4
:10040800C2F1200320FA03F7954001FA02F021FA1D
:1004180003F34FEA154E3843010CB3FBFEF71FFAFE
:1004280085F80EFB173341EA034107FB08F38B42BB
:1004380004FA02F407D9691807F1FF3C2FD28B425E
:100448002DD9023F2944CB1A81B2B3FBFEF00EFB33
:10045800103341EA034100FB08F38B4207D96918BE
:1004680000F1FF3C17D28B4215D902382944C91A2A
:1004780040EA07473BE73746304609E70746E7E6DD
:100488001846FBE64145ABD2B8EB020A69EB0E020F
:1004980001381346A4E76046E9E7184695E767463A
:1004A800D1E781467CE702382C4447E7ACF1020CDF
:1004B8002B442FE7384608E73746E9E6704700BF80
:1004C80010B504460E4B18784FF47A73B3FBF0F36B
:1004D8000C4A1068B0FBF3F000F0A4FB68B90F2CCD
:1004E80001D901200AE0002221464FF0FF3000F038
:1004F80059FB034B5C60002000E0012010BD00BFE9
:10050800000000201400002008B50B4B1A6842F4C4
:1005180000721A601A6842F480621A601A6842F41B
:1005280080721A60032000F02BFB0020FFF7C8FF41
:1005380001F022FC002008BD003C0240034A11687B
:10054800034B1B780B441360704700BF3400002036
:1005580000000020014B1868704700BF34000020DD
:10056800494B5A6822F440325A605A6841680A4333
:100578005A600268536823F48073536002685368B2
:10058800016943EA012353600268536823F040730A
:1005980053600268536881680B435360026893682C
:1005A80023F40063936002689368C1680B43936007
:1005B800826A364B9A4249D00268936823F0706386
:1005C800936002689368816A0B439360026893683A
:1005D80023F04053936002689368C16A0B439360A9
:1005E8000268936823F00203936002689368816944
:1005F80043EA41039360036A002B32D102685368CF
:1006080023F4006353600268D36A23F47003D3624F
:100618000168CB6AC269013A43EA0253CB620268B5
:10062800936823F40073936002689368016B43EA4C
:10063800412393600268936823F48063936002689F
:100648009368416943EA812393607047026893681D
:1006580023F0706393600268936823F040539360BB
:10066800BEE70268536843F4006353600268536846
:1006780023F46043536001684B68426A013A43EAD5
:1006880042334B60BFE700BF002301400100000F69
:1006980030B310B50446036C43B1236C13F0100F4C
:1006A8000AD00120002384F83C3010BD436480F850
:1006B8003C3001F0ABFBF0E7236C23F4885323F0C4
:1006C800020343F0020323642046FFF749FF00209A
:1006D8006064236C23F0030343F001032364E1E720
:1006E8000120704782B00023019390F83C30012B21
:1006F80063D0012380F83C3003689A6812F0010F38
:1007080013D19A6842F001029A60304B1B68304A54
:10071800A2FB03239B0C03EB4303019302E0019B21
:10072800013B0193019B002BF9D10268936813F0F8
:10073800010F44D0036C23F4E06323F0010343F476
:1007480080730364536813F4806F05D0036C23F43B
:10075800405343F480530364036C13F4805F19D04F
:10076800436C23F006034364002380F83C306FF0A9
:1007780022031360174B5B6813F01F0F0DD103683A
:100788009A6812F0405F1DD19A6842F080429A60E0
:10079800002015E000234364E6E703680E4A93420D
:1007A80001D000200CE09A6812F0405F0CD19A68E2
:1007B80042F080429A60002002E0022000E000201F
:1007C80002B070470020FBE70020F9E71400002082
:1007D80083DE1B43002301400020014003689A6820
:1007E80012F4806F03D09B6813F4807F1CD170B51E
:1007F8000D460446FFF7AEFE064623681A6812F057
:10080800020F1AD1B5F1FF3FF7D025B1FFF7A2FECD
:10081800801BA842F1D9236C43F00403236400230E
:1008280084F83C3003202DE0036C43F0200303647C
:10083800002380F83C30012070476FF012021A60E4
:10084800236C43F40073236423689A6812F0405FB2
:1008580017D1A269BAB9DA6A12F4700F03D09B688B
:1008680013F4806F11D1236C23F480732364236CF9
:1008780013F4805F0BD1236C43F001032364002041
:1008880000E0002070BD0020FCE70020FAE700200F
:10089800F8E70368D86C704770477047704738B5F9
:1008A800044602681168536811F0020F2FD003F054
:1008B800200363B3036C13F0100F03D1036C43F4EC
:1008C80000730364936813F0405F19D1A369BBB93F
:1008D800D36A13F4700F03D0936813F4806F0FD1A9
:1008E800536823F020035360236C23F4807323643C
:1008F800236C13F4805F03D1236C43F0010323645A
:100908002046FFF7C9FF23686FF012021A602368B8
:1009180019685A6802F0800211F0040F36D0002AD4
:1009280034D0226C12F0100F03D1226C42F4005222
:1009380022649A6812F4401F21D19A6B12F4401F66
:1009480003D09A6812F4806F19D15A6812F4806F34
:1009580015D19A6812F0405F11D1A2697AB95A6824
:1009680022F080025A60236C23F480532364236CA2
:1009780013F4807F03D1236C43F0010323642046E2
:1009880000F0FCF823686FF00C021A602268116806
:10099800536803F0400311F0010F04D01BB1136832
:1009A80013F0010F09D122681168536803F08063BE
:1009B80011F0200F00D063B938BD236C43F48033A5
:1009C80023642046FFF769FF23686FF001021A606D
:1009D800E9E7636C43F0020363646FF02005156078
:1009E8002046FFF75BFF23681D60E5E730B482B05F
:1009F8000023019390F83C30012B00F0B7800123CD
:100A080080F83C300B68092B3ED90568EA689BB230
:100A180003EB43031E3B072404FA03F322EA030310
:100A2800EB600568EA688C680B8803EB43031E3BA0
:100A380004FA03F31343EB604B68062B3AD80568B6
:100A48006A6B03EB8303053B1F2404FA03F322EAD2
:100A580003036B6305686A6B4B6803EB8303053B11
:100A68000C8804FA03F313436B630268404B9A4201
:100A780050D002683E4B9A4255D0002380F83C3053
:100A8800184602B030BC704705682A699BB203EB70
:100A98004303072404FA03F322EA03032B610568DE
:100AA8002A698C680B8803EB430304FA03F31343A6
:100AB8002B61C1E70C2B16D805682A6B03EB83035F
:100AC800233B1F2404FA03F322EA03032B6305687C
:100AD8002A6B4B6803EB8303233B0C8804FA03F36C
:100AE80013432B63C1E70568EA6A03EB8303413BC1
:100AF8001F2404FA03F322EA0303EB620568EA6A97
:100B08004B6803EB8303413B0C8804FA03F313435C
:100B1800EB62AAE70B68122BABD1164A536843F471
:100B280080035360A5E70B68103B012BA5D8114A39
:100B3800536843F4000353600B68102B9DD10E4B90
:100B48001B6802F1467202F52E3202F28332A2FBD2
:100B580003239B0C03EB83035A00019202E0019BE1
:100B6800013B0193019B002BF9D186E7022088E71E
:100B780000200140002301401400002070470000BD
:100B8800074AD36823F4E0631B041B0C000200F43B
:100B9800E060184340F0BF6040F40030D060704718
:100BA80000ED00E030B4174BDB68C3F30223C3F158
:100BB8000704042C28BF04241D1D062D18D9033B47
:100BC8004FF0FF3505FA04F421EA0401994005FACB
:100BD80003F322EA0303194300280BDB0901C9B216
:100BE80000F1604000F5614080F8001330BC7047A8
:100BF8000023E5E700F00F000901C9B2024B1954C0
:100C0800F4E700BF00ED00E014ED00E000F01F0283
:100C1800400901239340024A42F82030704700BF40
:100C280000E100E00138B0F1807F0AD2064B58603D
:100C3800064AF02182F823100020986007221A60E3
:100C480070470120704700BF10E000E000ED00E0B1
:100C5800042805D0054A136823F00403136070477D
:100C6800024A136843F004031360704710E000E081
:100C7800704708B5FFF7FCFF08BD90F83530DBB2C8
:100C8800022B03D08023436501207047052380F899
:100C980035300268136823F00103136000207047A1
:100CA80000230F2B00F2D780F0B482B039E007227E
:100CB80000E00022B2403A430234674E46F824204E
:100CC800664A1468EA4302EA04064F6817F4803F4C
:100CD80001D045EA0406614C2660646802EA04060D
:100CE8004F6817F4003F01D045EA04065B4C666084
:100CF800A46802EA04064F6817F4801F01D045EA89
:100D08000406564CA660E46822404E6816F4001F9C
:100D180001D045EA0402514CE26001330F2B00F286
:100D2800978001229A400C6804EA0205AA42F4D18D
:100D38004C68022C01D0122C10D1DE08083650F86D
:100D480026C003F00704A7000F24BC402CEA040CBB
:100D58000C69BC4044EA0C0440F8264004685F0073
:100D68000326BE40F64306EA040C4C6804F003046C
:100D7800BC4044EA0C0404604C6804F1FF3CBCF13C
:100D8800010F03D9112C01D0122C10D1846806EA66
:100D9800040CCC68BC4044EA0C048460446824EA2F
:100DA80002024C68C4F300149C4014434460C268B7
:100DB80016408A68BA403243C2604A6812F0805FBF
:100DC800ABD000220192264A546C44F48044546407
:100DD800526C02F480420192019A9C08A61C1E4A99
:100DE80052F8267003F0030296000F22B24027EA59
:100DF80002071C4A90423FF45CAF02F580629042C1
:100E08001AD002F58062904218D002F580629042B2
:100E180016D002F58062904214D002F580629042AA
:100E280012D002F58062904210D002F580629042A2
:100E38003FF43DAF08223DE701223BE7022239E7B4
:100E4800032237E7042235E7052233E7062231E794
:100E580002B0F0BC7047704700380140003C0140C8
:100E680000380240000002400369194201D1002005
:100E7800704701207047000008B5054B5B690342C5
:100E880000D108BD024B586100F06AFEF9E700BFC7
:100E9800003C0140002800F0BB8170B582B00446D8
:100EA800036813F0010F3BD0A74B9B6803F00C03BA
:100EB800042B2CD0A44B9B6803F00C03082B21D0E7
:100EC8006368B3F5803F4FD0B3F5A02F52D09E4B47
:100ED8001A6822F480321A601A6822F480221A6092
:100EE8006368002B50D0FFF735FB0546964B1B680F
:100EF80013F4003F14D1FFF72DFB401B6428F5D9EC
:100F080003208AE1904B5B6813F4800FD8D08E4B96
:100F18001B6813F4003F03D06368002B00F07A814C
:100F2800236813F0020F55D0874B9B6813F00C0F02
:100F38003ED0854B9B6803F00C03082B33D0E36845
:100F4800002B68D0814B01221A60FFF703FB05468E
:100F58007D4B1B6813F0020F54D1FFF7FBFA401BBF
:100F68000228F5D9032058E1774A136843F48033FF
:100F78001360B5E7744B1A6842F480221A601A6845
:100F880042F480321A60ABE7FFF7E4FA05466E4B8D
:100F98001B6813F4003FC3D0FFF7DCFA401B64283A
:100FA800F5D9032039E1684B5B6813F4800FC6D18B
:100FB800654B1B6813F0020F04D0E368012B01D0C6
:100FC80001202AE1604A136823F0F803216943EA03
:100FD800C1031360236813F0080F40D0636963B33B
:100FE8005B4B01221A60FFF7B5FA0546564B5B6F5B
:100FF80013F0020F33D1FFF7ADFA401B0228F5D9E1
:1010080003200AE1504A136823F0F803216943EAF0
:10101800C1031360DEE74D4B00221A60FFF79AFA0E
:101028000546494B1B6813F0020FD3D0FFF792FA1D
:10103800401B0228F5D90320EFE0454B00221A6037
:10104800FFF788FA0546404B5B6F13F0020F06D096
:10105800FFF780FA401B0228F5D90320DDE023685A
:1010680013F0040F79D0384B1B6C13F0805F33D129
:1010780000230193344B1A6C42F080521A641B6CA3
:1010880003F080530193019B0125324B1B6813F435
:10109800807F23D0A368012B34D0052B38D02A4B6E
:1010A8001A6F22F001021A671A6F22F004021A67F7
:1010B800A368002B36D0FFF74DFA0646224B1B6F6C
:1010C80013F0020F48D1FFF745FA801B41F288332D
:1010D8009842F3D90320A0E00025D6E71D4A1368FB
:1010E80043F480731360FFF735FA0646194B1B6803
:1010F80013F4807FCED1FFF72DFA801B0228F5D993
:1011080003208AE0104A136F43F001031367CFE707
:101118000D4B1A6F42F004021A671A6F42F001026F
:101128001A67C5E7FFF716FA0646074B1B6F13F059
:10113800020F11D0FFF70EFA801B41F28833984254
:10114800F3D9032069E000BF00380240000047429D
:10115800800E474200700040E5B9A369002B5BD0C0
:10116800304A926802F00C02082A58D0022B17D095
:101178002D4B00221A60FFF7EDF90446294B1B6836
:1011880013F0007F42D0FFF7E5F9001B0228F5D9DC
:10119800032042E0234A136C23F080531364DCE7F6
:1011A800214B00221A60FFF7D5F905461D4B1B6835
:1011B80013F0007F06D0FFF7CDF9401B0228F5D9C0
:1011C80003202AE0E369226A1343626A43EA82132E
:1011D800A26A5208013A43EA0243E26A43EA026316
:1011E800104A5360104B01221A60FFF7B3F9044606
:1011F8000C4B1B6813F0007F06D1FFF7ABF9001BFF
:101208000228F5D9032008E0002006E0002004E0C9
:1012180001207047012000E0002002B070BD0120CD
:10122800FBE700BF0038024060004742324B9B6832
:1012380003F00C03042B5CD0082B01D02F48704717
:101248002DE9F04B2C4B5A6802F03F025B6813F40F
:10125800800F2BD0284B5B68C3F388131E460027EA
:101268005C010025E41A65EB0705A90141EA9461D0
:10127800A001001B61EB0501CB0043EA5073C400D9
:10128800A01943EB07014B0243EAD053440220461E
:1012980019460023FEF794FF174B5B68C3F301431D
:1012A80001335B00B0FBF3F0BDE8F08B124B5B68D9
:1012B800C3F388131E4600275C010025E41A65EB7A
:1012C8000705A90141EA9461A001001B61EB050132
:1012D800CB0043EA5073C400A01943EB07018B020B
:1012E80043EA90538402204619460023FEF768FF1C
:1012F800D2E70348704700BF003802400024F400DA
:1013080000127A00002800F09D8070B504464F4B0B
:101318001B6803F00F038B4209D2CBB24B4A137000
:10132800136803F00F038B4201D0012070BD2368BE
:1013380013F0020F17D013F0040F04D0444A936837
:1013480043F4E0539360236813F0080F04D0404A35
:10135800936843F4604393603D4A936823F0F00335
:10136800A068034393600D46236813F0010F32D041
:101378006368012B21D09A1E012A25D9344A1268A4
:1013880012F0020F60D032498A6822F00302134338
:101398008B60FFF7DFF806462D4B9B6803F00C03C4
:1013A8006268B3EB820F16D0FFF7D4F8801B41F2C6
:1013B80088339842F0D90320B8E7254A126812F416
:1013C800003FE0D10120B1E7214A126812F0007F06
:1013D800D9D10120AAE71D4B1B6803F00F03AB42CC
:1013E80009D9EAB2194B1A701B6803F00F03AB4214
:1013F80001D001209AE7236813F0040F06D0144A9D
:10140800936823F4E053E1680B439360236813F077
:10141800080F07D00E4A936823F46043216943EA12
:10142800C1039360FFF702FF094B9B68C3F30313E3
:10143800084AD35CD840084B18600020FFF740F8F2
:10144800002073E70120704701206FE7003C02404D
:10145800003802401820000814000020014B1868CA
:10146800704700BF1400002008B5FFF7F7FF044BD2
:101478009B68C3F38223034AD35CD84008BD00BFEE
:10148800003802402820000808B5FFF7E7FF044BA2
:101498009B68C3F34233034AD35CD84008BD00BFFE
:1014A80000380240282000080268D36823F49073AB
:1014B800D3600268536923F001035361202380F845
:1014C8003A30704790F83930DBB2212B2AD1836843
:1014D800B3F5805F16D0036A5A1C02621A78036853
:1014E8005A60C38C013B9BB2C384EBB90268D368D2
:1014F80023F08003D3600268D36843F04003D360CD
:1015080000207047036A1B880268C3F3080353600E
:1015180003691BB9036A02330362E2E7036A013312
:101528000362DEE702207047002070472DE9F84388
:10153800044601680A6922F44052C36813430B61E8
:101548000168CA6822F4164222F00C028368006916
:10155800034360690343E06903431343CB60216895
:101568004A6922F44072A36913434B61E369B3F5F6
:10157800004F60D02368B84A934200F0148102F506
:101588008062934200F00F81FFF76EFF00EB80004E
:1015980000EB80006568AD00B0FBF5F5AF4FA7FB29
:1015A80005356D092E01FFF75FFF00EB800000EBAA
:1015B80080006568AD00B0FBF5F9FFF755FF00EB5B
:1015C800800000EB80006568AD00B0FBF5F5A7FB77
:1015D80005356D094FF0640808FB15952D01323566
:1015E800A7FB05356D0905F0F0053544FFF73CFF0D
:1015F80000EB800000EB80006668B600B0FBF6F6F2
:10160800FFF732FF00EB800000EB800063689B006F
:10161800B0FBF3F0A7FB0030400908FB10684FEA65
:10162800081808F13208A7FB0837C7F343172368DF
:101638002F449F600DE12368874A93425BD002F5EF
:101648008062934257D0FFF70FFF00EB800000EB5A
:10165800800065686D00B0FBF5F5804FA7FB053588
:101668006D092E01FFF700FF00EB800000EB800002
:1016780065686D00B0FBF5F9FFF7F6FE00EB80003A
:1016880000EB800065686D00B0FBF5F5A7FB05353C
:101698006D094FF0640808FB1595ED003235A7FB7E
:1016A80005356D096D0005F4F8753544FFF7DCFE66
:1016B80000EB800000EB800066687600B0FBF6F671
:1016C800FFF7D2FE00EB800000EB800063685B0050
:1016D800B0FBF3F3A7FB03235B0908FB13684FEA8E
:1016E800C80808F13208A7FB0837C7F34217236870
:1016F8002F449F60ADE0FFF7C7FE00EB800000EBD2
:10170800800065686D00B0FBF5F5544FA7FB053503
:101718006D092E01FFF7B8FE00EB800000EB80009A
:1017280065686D00B0FBF5F9FFF7AEFE00EB8000D1
:1017380000EB800065686D00B0FBF5F5A7FB05358B
:101748006D094FF0640808FB1595ED003235A7FBCD
:1017580005356D096D0005F4F8753544FFF794FEFD
:1017680000EB800000EB800066687600B0FBF6F6C0
:10177800FFF78AFE00EB800000EB800063685B00E7
:10178800B0FBF3F3A7FB03235B0908FB13684FEADD
:10179800C80808F13208A7FB0837C7F342172368BF
:1017A8002F449F6055E0FFF76FFE00EB800000EBD1
:1017B80080006568AD00B0FBF5F5284FA7FB05353F
:1017C8006D092E01FFF760FE00EB800000EB800042
:1017D8006568AD00B0FBF5F9FFF756FE00EB800039
:1017E80000EB80006568AD00B0FBF5F5A7FB05359B
:1017F8006D094FF0640808FB15952D013235A7FBDC
:1018080005356D0905F0F0053544FFF73DFE00EBA1
:10181800800000EB80006668B600B0FBF6F6FFF7C4
:1018280033FE00EB800000EB800063689B00B0FB98
:10183800F3F0A7FB0030400908FB10684FEA0818CE
:1018480008F13208A7FB0837C7F3431723682F446A
:101858009F60BDE8F88300BF001001401F85EB5171
:1018680058B310B5044690F839300BB3242384F8E4
:1018780039302268D36823F40053D3602046FFF739
:1018880055FE2268136923F4904313612268536953
:1018980023F02A0353612268D36843F40053D360CA
:1018A8000020E063202384F8393084F83A3010BDF2
:1018B80080F8383000F0D6FAD8E70120704790F861
:1018C8003930DBB2202B16D1B9B1C2B190F838301B
:1018D800012B16D001628284C2840023C3632122B3
:1018E80080F8392080F838300168CA6842F08002F0
:1018F800CA601846704702207047012070470120CF
:10190800704702207047704708B50168CB6823F01C
:101918004003CB60202380F83930FFF7F4FF002024
:1019280008BD704708B590F83A30DBB2222B40D199
:101938008368B3F5805F0ED0036903BB03685A68F8
:10194800836A591C81621A70C38D013B9BB2C3859F
:10195800F3B100202EE0826A036943B903685B682B
:10196800C3F308031380836A02338362ECE70368D6
:101978005B68DBB21380836A01338362E4E7036840
:101988005B68826A511C816203F07F031370DBE796
:101998000268D36823F49073D3600268536923F014
:1019A80001035361202380F83A30FFF7BAFF002083
:1019B80000E0022008BD704710B5044602681368AD
:1019C800D168526913F00F0005D113F0200F02D02F
:1019D80011F0200F53D1002867D012F0010202D174
:1019E80011F4907F61D013F0010F06D011F4807FBD
:1019F80003D0E06B40F00100E06313F0040F04D063
:101A08001AB1E06B40F00200E06313F0020F04D05B
:101A18001AB1E06B40F00400E06313F0080F04D043
:101A28001AB1E26B42F00802E263E26B002A48D086
:101A380013F0200F02D011F0200F24D123685B6926
:101A480003F04003E26B12F0080F00D13BB32046CD
:101A5800FFF72AFD23685A6912F0400F1BD05A6914
:101A680022F040025A61636B8BB11A4A1A65606BA7
:101A7800FFF703F928B3606B036D984721E0204610
:101A8800FFF750FF1DE02046FFF74CFFD6E7204642
:101A9800FFF791FF15E02046FFF78DFF11E0204684
:101AA800FFF789FF0023E3630BE013F0800F02D0F8
:101AB80011F0800F06D113F0400F02D011F0400F43
:101AC80004D110BD2046FFF7FDFCFAE72046FFF7DA
:101AD8001BFFF6E7E11A000808B5806B0023C385F1
:101AE800C384FFF768FF08BD10B588B000240094D0
:101AF800184B1A6B42F080021A631A6B02F08002CC
:101B08000092009A01941A6B42F001021A631A6B50
:101B180002F001020192019A02941A6B42F0040247
:101B28001A631B6B03F004030293029B01230393C4
:101B3800094B04930223059303A90848FFF7B0F85B
:101B4800224621460620FFF72DF80620FFF75EF80B
:101B580008B010BD0038024000001110000002401B
:101B680008B501211248FFF77FF9012800D008BD08
:101B7800104B1B88B3F5487F0AD90F4BDC221A702B
:101B88000E4931F8042B0E48FFF799FE00230AE0AE
:101B9800094B00221A70094931F8082B0848FFF749
:101BA8008EFEF3E70133074A9342FBDDDFE700BF10
:101BB80000000240C4000020780000200800002037
:101BC800380000207F969800FEE7000000B585B039
:101BD8001548164B03604FF480334360002383603D
:101BE800036183610362C362114A8262C360012296
:101BF800C26103634261FEF74BFD60B901230093A4
:101C080001930023029369460748FEF7EFFE30B9B7
:101C180005B05DF804FBEB210648FFF7D5FFF52179
:101C28000448FFF7D1FF00BF7C00002000200140DE
:101C38000100000F3020000808B50B480B4B03606B
:101C48004FF41653436000238360C36003610C2282
:101C580042618361C361FFF703FE00B908BD4FF419
:101C680084710348FFF7B0FF3800002000480040A7
:101C78003020000800B595B0002101912A4B1A6C5C
:101C880042F080521A641B6C03F080530193019B4D
:101C98000291264B1A6842F480421A601B6803F4CA
:101CA80080430293029B012308934FF480330993E6
:101CB80002220E924FF480030F9304231093A8215D
:101CC80011911292139308A8FFF7E4F820BB0F2391
:101CD800039302230493002305934FF4A053069320
:101CE8004FF480530793052103A8FFF70BFBB8B9FE
:101CF800FFF7B4FB0E4BA3FB00308009FEF792FF01
:101D08000420FEF7A5FF002211464FF0FF30FEF732
:101D180049FF15B05DF804FBB8210648FFF754FFEA
:101D2800C6210448FFF750FF003802400070004009
:101D3800D34D62103020000808B5FEF7E5FBFFF729
:101D480099FFFFF7D1FEFFF741FFFFF775FF084C3A
:101D58002046FEF7C7FC0A212046FEF73FFD002873
:101D6800F5D12046FEF795FD024B1880EFE700BF3E
:101D78007C000020C400002010B582B0002400942C
:101D8800214B5A6C42F480425A645A6C02F48042E5
:101D98000092009A01941A6C42F080521A641B6CEB
:101DA80003F080530193019B0320FEF7E9FE2246CE
:101DB80021466FF00B00FEF7F5FE224621466FF034
:101DC8000A00FEF7EFFE224621466FF00900FEF7F3
:101DD800E9FE224621466FF00400FEF7E3FE2246A4
:101DE80021466FF00300FEF7DDFE224621466FF024
:101DF8000100FEF7D7FE224621464FF0FF30FEF7DE
:101E0800D1FE02B010BD00BF003802400268134B7B
:101E18009A4200D0704710B586B00024009403F5AC
:101E28008C335A6C42F480725A645B6C03F480738E
:101E38000093009B0223019303230293039401A9B7
:101E48000748FEF72DFF224621461220FEF7AAFE7C
:101E58001220FEF7DBFE06B010BD00BF00200140D7
:101E6800000002400268164B9A4200D0704710B535
:101E780086B00024009403F5F8331A6C42F48022EB
:101E88001A641B6C03F480230093009B4FF4406397
:101E9800019302230293012303930323049307234B
:101EA800059301A90748FEF7FBFE22462146272095
:101EB800FEF778FE2720FEF7A9FE06B010BD00BF8A
:101EC80000480040000802407047FEE7FEE7FEE7D2
:101ED800FEE770477047704708B5FEF72FFBFEF71F
:101EE800C8FE08BD08B50120FEF7C6FF08BD000002
:101EF80008B50248FEF7D3FC08BD00BF7C000020EF
:101F080008B50248FFF758FD08BD00BF380000209B
:101F18000F49D1F8883043F47003C1F888300D4B6D
:101F28001A6842F001021A60002098601A6822F0CC
:101F3800847222F480321A60074A5A601A6822F4BE
:101F480080221A60D8604FF000638B60704700BF32
:101F580000ED00E00038024010300024DFF834D0F3
:101F6800002103E00C4B5B58435004310B480C4BE9
:101F780042189A42F6D30B4A02E0002342F8043B87
:101F8800094B9A42F9D3FFF7C3FF00F011F8FFF7A6
:101F9800D3FE7047000002205020000800000020F7
:101FA8001800002018000020C8000020FEE70000EC
:101FB80070B50D4E0D4CA41BA4100025A54209D1E7
:101FC8000B4E0C4C00F018F8A41BA4100025A542D9
:101FD80005D170BD56F8253098470135EEE756F81B
:101FE800253098470135F2E74820000848200008C6
:101FF800482000084C200008F8B500BFF8BC08BC11
:102008009E467047F8B500BFF8BC08BC9E467047AE
:102018000000000000000000010203040607080990
:1020280000000000010203042E2E2F5372632F6D4F
:0820380061696E2E63000000D7
:08204000B8E1FF7F0100000080
:04204800AD010008DE
:04204C0089010008FE
:102050000100000010000000040000004B494C4C3F
:082060004D4953530024F40024
:0400000508001F656B
:00000001FF
